:100000000C94C5000C94E2000C94E2000C94E20005
:100010000C94E2000C94E2000C94E2000C94E200D8
:100020000C94E2000C94E2000C94E2000C94E200C8
:100030000C94E2000C94E2000C94E2000C94E200B8
:100040000C94E2000C94E2000C94E2000C94E200A8
:100050000C94E2000C94E2000C94E2000C94E20098
:100060000C94E2000C94E2000C94E2000C94E20088
:100070000C94E2000C94E2000C94E2006E616E00BD
:10008000696E660000407A10F35A00A0724E18099B
:100090000010A5D4E80000E87648170000E40B54EF
:1000A000020000CA9A3B000000E1F50500008096BE
:1000B0009800000040420F000000A08601000000F0
:1000C000102700000000E8030000000064000000AA
:1000D00000000A00000000000100000000002C7673
:1000E000D888DC674F0823DFC1DFAE59E1B1B7968E
:1000F000E5E3E453C63AE651997696E8E6C28426EB
:10010000EB898C9B62ED407C6FFCEFBC9C9F40F2C6
:10011000BAA56FA5F490055A2AF75C936B6CF96742
:100120006DC11BFCE0E40D47FEF520E6B500D0ED07
:10013000902E0300943577050080841E080000206F
:100140004E0A000000C80C333333330F986E12830D
:100150001141EF8D2114893BE65516CFFEE6DB18E1
:10016000D1844B381BF77C1D901DA4BBE4242032A6
:1001700084725E228100C9F124ECA1E53D2763640D
:10018000696E6F70737578585B0011241FBECFEFD6
:10019000D0E1DEBFCDBF11E0A0E0B1E0E0E4F4E1EA
:1001A00002C005900D92AC35B107D9F711E0ACE56E
:1001B000B1E001C01D92A236B107E1F70E941C0117
:1001C0000C941E0A0C9400001F93182F8A3019F407
:1001D0008DE00E94E4008091C00085FFFCCF109369
:1001E000C600212F332727FD3095C9011F9108959F
:1001F0008091C00087FFFCCF8091C60090E00895F9
:100200001092C5008DE48093C40088E18093C10002
:1002100086E08093C2008EE491E090935F0180932A
:100220005E01909361018093600180E491E090937E
:100230005D0180935C0108956F927F928F929F92EF
:10024000AF92BF92CF92DF92EF92FF920F931F93E4
:10025000DF93CF93CDB7DEB7CA5CD0400FB6F8942A
:10026000DEBF0FBECDBF0E94000180E091E00E9482
:100270006F06EE24FF2427E1622E21E0722E93E028
:10028000C92ED12CCC0EDD1E4E010894811C911C70
:100290008DE1A82E81E0B82E00D000D000D0EDB7BF
:1002A000FEB73196ADB7BEB712967C926E9211979B
:1002B000D382C282958284820E94A40687010F5F46
:1002C0001F4F00D000D0EDB7FEB73196ADB7BEB727
:1002D0001296BC92AE921197F382E282D582C482CA
:1002E00029813A8137832683918780870E945A0625
:1002F00078018DB79EB70A960FB6F8949EBF0FBED1
:100300008DBFCACFA1E1B0E0E8E8F1E00C940905A7
:100310003C017F876E876A01FC0117821682838108
:1003200081FD03C06FEF7FEF6FC39E012F5F3F4FD3
:10033000398B288BF3012381EE85FF8523FD859181
:1003400023FF8191FF87EE87882309F45AC3853202
:1003500051F4EE85FF8523FD859123FF8191FF8771
:10036000EE87853229F490E0B3010E942E06E2CF99
:10037000982F10E0882499241032B0F49B3269F051
:100380009C3228F4903251F0933271F40BC09D32BC
:1003900039F0903349F4116028C01260146025C010
:1003A000186023C0106121C017FD2AC0892F805317
:1003B0008A3078F416FF06C0FAE09F9E902C112434
:1003C000980E13C03AE0839E802C1124880E106290
:1003D0000CC09E3221F416FD14C3106406C09C3676
:1003E00011F4106802C0983659F4EE85FF8523FD9C
:1003F000959123FF9191FF87EE87992309F0BCCF58
:10040000892F8554833020F4812F8061905E07C04E
:10041000892F8556833008F09FC1812F8F7E86FDFE
:1004200002C076E0972E6FE3F62EF822953619F487
:10043000F0E4FF2A07C0963619F420E8F22A02C039
:1004400091109A94F7FE0AC03BE3391518F45CE367
:10045000B52E02C0B92CB39427E009C047E0491576
:1004600020F4BB2447E0942EF7CF292DBB24C601EE
:1004700004969D878C87F6016081718182819381CA
:10048000AE014F5F5F4F0B2D0E9440056C0109814B
:10049000202E332400FF04C003FD02C01DE209C06A
:1004A000F1FE02C01BE205C0F2FC02C010E001C078
:1004B00010E2C1018C709070892BB9F1112311F4F5
:1004C00083E001C084E0881510F088240AC0881AEF
:1004D000F3FC07C080E290E0B3010E942E068A94EC
:1004E000C9F7112329F0812F90E0B3010E942E0655
:1004F00023FE03C00CE710E00EC000E810E00BC0C4
:10050000E114F10409F0805290E0B3010E942E063C
:100510000F5F1F4F05C0EF2CFF24F0E1EF22FF24F7
:10052000F8018491882361F714C1F7FE12C0BC0C56
:1005300024FE04C08A81813309F4BA941B141CF090
:10054000BB24B3942DC0F8E0FB1550F538E0B32E72
:1005500027C0F6FC25C0892D90E08C159D054CF038
:100560002CEFC2162FEFD20624F030E8F32A01C098
:100570009A94992049F0E2E0F0E0EC0FFD1FE90DBC
:10058000F11D80818033A1F3F7FE0AC0B92CB3942A
:10059000892D90E0C816D90614F0992401C09C1842
:1005A000F7FC03C025E030E009C01C141D041CF05A
:1005B00021E030E003C096012F5F3F4F112311F07F
:1005C0002F5F3F4F992029F0892D90E00196280F49
:1005D000391F882D90E02817390714F0882401C0AE
:1005E000821A4F2C5524C20189709070892B39F0E2
:1005F00008C080E290E0B3010E942E068A94882011
:10060000C1F7112329F0812F90E0B3010E942E063B
:1006100043FE07C008C080E390E0B3010E942E06AD
:100620008A948820C1F7F7FE46C08601D7FE02C033
:1006300000E010E076010894E11CF11CE01AF10AD8
:1006400041E050E04C0F5D1FE40EF51E26014B18F3
:100650005108892D90E0AA24BB24A81AB90A5FEF9B
:100660000F3F150729F48EE290E0B3010E942E0699
:10067000C016D10634F0401651061CF4F7018081F3
:1006800001C080E3015010400894E11CF11C0A15E0
:100690001B052CF090E0B3010E942E06E0CF0C1554
:1006A0001D0539F49A81963318F4953311F424FE1C
:1006B00081E390E04BC08A81813309F00F7E90E0A6
:1006C000B3010E942E069920A1F08EE290E0B301C2
:1006D0000E942E0612E0E1E0F0E0EC0FFD1FE10FBA
:1006E000F11D1F5F808190E0B3010E942E069A9455
:1006F00091F744FC03C085E690E002C085E490E0F9
:10070000B3010E942E06D7FC05C0C114D10441F4E8
:1007100004FF06C0D094C194D108D3948DE201C0E7
:100720008BE290E0B3010E942E0680E305C08F5F4C
:1007300026EF3FEFC20ED31E3AE0C316D104BCF73A
:1007400090E0B3010E942E06C601C096B3010E943C
:100750002E06CC84DD8452C1933631F0933799F064
:10076000933509F059C023C0F601808189835E0169
:100770000894A11CB11C22E030E0C20ED31E21E07F
:10078000E22EF12C12C0F601A080B18016FD03C04C
:100790006FEF7FEF02C0692D70E022E030E0C20E03
:1007A000D31EC5010E9423067C011F7713C0F601EA
:1007B000A080B18016FD03C06FEF7FEF02C0692DEE
:1007C00070E022E030E0C20ED31EC5010E94180680
:1007D0007C01106813FF07C01BC080E290E0B301EA
:1007E0000E942E068A94882D90E0E816F906A8F358
:1007F0000FC0F50117FD859117FF81915F0190E012
:10080000B3010E942E0681108A940894E108F10831
:10081000E114F10471F7F2C0943611F0993689F5BC
:1008200017FF08C0F601208131814281538184E0A5
:1008300090E00AC0F601808191819C01442737FD38
:100840004095542F82E090E0C80ED91E9FE6F92E05
:10085000F12257FF09C050954095309521953F4FA3
:100860004F4F5F4F90E8F92ACA01B901AE014F5FBF
:100870005F4F2AE030E00E94B906E82EE889EE1AC0
:1008800041C0953721F41F7E2AE030E01CC0197F5B
:100890009F3661F0903720F4983509F0B2C00FC050
:1008A000903739F0983709F0ACC004C028E030E048
:1008B0000AC0106114FD146020E130E004C014FD92
:1008C000166020E132E017FF08C0F60160817181F7
:1008D0008281938144E050E008C0F60180819181DB
:1008E000BC0180E090E042E050E0C40ED51EAE01B5
:1008F0004F5F5F4F0E94B906E82E5889E51A8FE7CF
:10090000F82EF122F6FE0BC08EEFF822E91438F42F
:10091000F4FE07C0F2FC05C09FEEF92202C01E2DB6
:1009200001C0192DF4FE0DC0FE01EE0DF11D8081F8
:10093000803319F4E9EEFE2208C01F5FF2FE05C005
:1009400003C08F2D867809F01F5F0F2DF3FC14C0B4
:10095000F0FE0FC0181510F09E2C0BC09E2C980CAA
:10096000911A182D06C080E290E0B3010E942E0675
:100970001F5F1815C0F304C0181510F4811A01C0C8
:10098000882404FF0FC080E390E0B3010E942E068C
:1009900002FF1DC001FD03C088E790E00EC088E59E
:1009A00090E00BC0802F867891F001FF02C08BE2AF
:1009B00001C080E2F7FC8DE290E0B3010E942E06B8
:1009C00006C080E390E0B3010E942E069A94E914D9
:1009D000C0F3EA94E1E0F0E0EC0FFD1FEE0DF11D35
:1009E000808190E0B3010E942E06EE2091F706C0B0
:1009F00080E290E0B3010E942E068A948820C1F71D
:100A000099CCF30166817781CB016196E2E10C9488
:100A100025052F923F924F925F926F927F928F9215
:100A20009F92AF92BF92CF92DF92EF92FF920F937D
:100A30001F93CF93DF93CDB7DEB7CA1BDB0B0FB687
:100A4000F894DEBF0FBECDBF09942A883988488844
:100A50005F846E847D848C849B84AA84B984C884DA
:100A6000DF80EE80FD800C811B81AA81B981CE0FD1
:100A7000D11D0FB6F894DEBF0FBECDBFED010895B6
:100A8000283008F027E03327DA01990F311D87FD60
:100A9000916000966105710539F432602E5F3D93D7
:100AA00030E32A95E1F708959F3F30F080387105D3
:100AB000610509F03C5F3C5F3D93913008F0806830
:100AC000911DDF93CF931F930F93FF92EF92192FF6
:100AD000987F9695E92F96959695E90FFF27E25214
:100AE000FF4F99273327EE24FF24A701E701059044
:100AF0000894079428F4360FE71EF81E491F511D6D
:100B0000660F771F881F991F0694A1F70590079419
:100B100028F4E70EF81E491F561FC11D770F881FC6
:100B2000991F661F0694A1F70590079428F4F80E04
:100B3000491F561FC71FD11D880F991F661F771F9A
:100B40000694A1F70590079420F4490F561FC71F7C
:100B5000D81F990F661F771F881F0694A9F78491E5
:100B60001095177041F0D695C79557954795F7940E
:100B7000E7941A95C1F7E4E8F0E0689415901591B0
:100B800035916591959105907FE27395E118F10A91
:100B9000430B560BC90BD009C0F7E10CF11E431FE4
:100BA000561FC91FD01D7EF4703311F48A95E6CF0D
:100BB000E894015030F0080F0AF40027021708F4F7
:100BC000202F2395022F7A3328F079E37D932A95FD
:100BD000E9F710C07D932A9589F606949795679555
:100BE000379517951794E118F10A430B560BC90B6B
:100BF000D00998F023957E9173957A3308F070E3CD
:100C00007C932013B8F77E9170617D9330F08395CB
:100C100071E37D9370E32A95E1F71124EF90FF9043
:100C20000F911F91CF91DF91992787FD909508959E
:100C3000FC010590615070400110D8F780959095A7
:100C40008E0F9F1F0895FC016150704001900110AC
:100C5000D8F7809590958E0F9F1F08950F931F933F
:100C6000CF93DF938C01EB018B8181FF1BC082FF4F
:100C70000DC02E813F818C819D812817390764F436
:100C8000E881F9810193F983E88306C0E885F98555
:100C9000802F0995892B31F48E819F8101969F8346
:100CA0008E8302C00FEF1FEFC801DF91CF911F911C
:100CB0000F910895A0E0B0E0E0E6F6E00C9419058D
:100CC000FE0135966191719180915E0190915F0175
:100CD000AF010E9482012096E2E00C9435050F934B
:100CE0001F93CF93DF938C01E0915E01F0915F0140
:100CF000838181FF21C0C0E0D0E00DC0E0915E01A2
:100D0000F0915F0120853185BF01F9010995892B9B
:100D100011F0CFEFDFEFF80181918F01882371F798
:100D2000E0915E01F0915F01208531858AE0BF018D
:100D3000F9010995892B11F0CFEFDFEFCE01DF919B
:100D4000CF911F910F910895A0E0B0E0EAEAF6E09C
:100D50000C941905FE0135966191719180915C01A9
:100D600090915D01AF010E949B082096E2E00C94F7
:100D70003505FA01AA27283051F1203181F1E89494
:100D80006F936E7F6E5F7F4F8F4F9F4FAF4FB1E07E
:100D90003ED0B4E03CD0670F781F891F9A1FA11D79
:100DA000680F791F8A1F911DA11D6A0F711D811D7A
:100DB000911DA11D20D009F468943F912AE0269F3F
:100DC00011243019305D3193DEF6CF010895462F9E
:100DD0004770405D4193B3E00FD0C9F7F6CF462F7F
:100DE0004F70405D4A3318F0495D31FD40524193E8
:100DF00002D0A9F7EACFB4E0A695979587957795A5
:100E00006795BA95C9F700976105710508959B012B
:100E1000AC010A2E06945795479537952795BA95B4
:100E2000C9F7620F731F841F951FA01D0895FC0151
:100E300020FD08C023FD05C022FF02C0738362832A
:100E4000518340830895EF92FF920F931F9344FFC5
:100E500002C033E011C046FF02C034E00DC0DB0128
:100E6000FC01AA0FBB1FEE1FFF1F1094D1F76A0FE2
:100E70007B1F8E1F9F1F31E0660F771F881F991FF2
:100E80003150D1F77B018C01E20EF11C011D111DC7
:100E9000A8019701B701CA011F910F91FF90EF9030
:100EA00008950F931F93CF93DF938C01C8010E9485
:100EB000BF09EC0197FD08C00E94AC09892BB1F76E
:100EC000CE01B8010E94010ACE01DF91CF911F919E
:100ED0000F910895A0E0B0E0E0E7F7E00C94110571
:100EE000EC01C62E5A01122F0E94BF09AC018B32B1
:100EF00019F08D3251F41068CA9409F46DC0CE0116
:100F00000E94BF09AC0197FD67C06DEFD62ED122BC
:100F10008D2D807301F54033F1F4CA9409F447C074
:100F2000CE010E94BF09AC0197FD41C082E0D82AE2
:100F3000483711F0483559F480E4D82ACA94B9F1F9
:100F4000CE010E94BF09AC0199232CF430C0D6FC1D
:100F500002C080E1D82AEE24FF248701242F2053E9
:100F6000283088F0D4FC09C02A3068F0D6FE05C0CD
:100F70002F7D822F8151863028F0CA01BE010E9448
:100F8000010A12C02750C801B7014D2D0E94230746
:100F90007B018C0182E0D82ACA9461F0CE010E94C4
:100FA000BF09AC0197FFDACFD1FC04C015C0EE2415
:100FB000FF248701D7FE08C010950095F094E094B7
:100FC000E11CF11C011D111DC501B801A7012D2D4A
:100FD0000E94170781E001C080E0CDB7DEB7EAE0EC
:100FE0000C942D05A0E2B0E0E8EFF7E00C940D05BD
:100FF0006C01A62E8A017901FE01319680E2DF01A3
:101000001D928A95E9F770E030E060E040E050E042
:101010004F01A1E0B0E0F6018381F70183FD259146
:1010200083FF21917F01222309F47EC02E3519F41C
:101030004115510569F1872F90E08417950744F415
:101040002D3551F12D3221F4332329F431E021C023
:10105000332309F4622F322F832F86958695869548
:10106000F401E80FF11D832F87703D0102C0660C6B
:10107000771C8A95E2F7208126292083361711F400
:1010800030E007C0361710F43F5FE6CF3150E4CFB1
:1010900071E04F5F5F4FBFCF332319F08E818062C5
:1010A0008E83772359F0FE0131969E012F5D3F4FCD
:1010B000808180958193E217F307D1F7BB24B39425
:1010C0004E010894811C911CC6010E94BF09AC010D
:1010D00097FD22C0869586958695F401E80FF11D4F
:1010E000808190E09A012770307002C095958795B5
:1010F0002A95E2F780FD05C0CA01B6010E94010AE7
:101100000BC00115110519F0D8014D938D01AA945A
:10111000BB24AA20C9F602C0BB2031F40115110579
:1011200029F0F801108202C0EE24FF24C701A09626
:10113000EEE00C942905A0E0B0E0E1EAF8E00C94C0
:101140000D055C016B013A01FC01178216828824AF
:10115000EAC0812F90E00E94AC09892B21F0C501E3
:101160000E945107E0C0153249F4F601F3FC659185
:10117000F3FE61916F01653269F415E2C5010E94C9
:10118000BF0997FDDCC0181709F4CDC0B5010E9456
:10119000010ADAC06A3219F0162F00E006C0F3FC2B
:1011A0001591F3FE11916F0101E099240FC00260C7
:1011B000692D70E080E090E040E20E942307962EC7
:1011C000F601F3FC1591F3FE11916F01212F2053CD
:1011D0002A3068F301FD03C099249A9403C0992032
:1011E00009F4B2C0183621F01C3699F4F6010BC090
:1011F000F601F3FC6591F3FE6191683619F06F0119
:10120000162F07C008600460F3FC1591F3FE1191DE
:101210006F01112309F498C08EE791E0612F70E00F
:101220000E94B409892B09F48FC0802F00FF03C0EE
:10123000EE24FF2407C0F301E080F18022E030E0DB
:10124000620E731E1E3651F4F5014681578160E02F
:1012500070E0C701202F0E94170765C0133691F474
:1012600081FD02C099249394C5010E94BF0997FD96
:1012700066C0E114F10419F0F70181937F019A949B
:1012800099F74FC01B3559F4C501692DA701960187
:101290000E94F2076C01009709F043C03DC0C501F0
:1012A0000E94510797FD4BC01F3659F1103728F4A3
:1012B000143629F1193639F527C0133719F01537C7
:1012C00011F51DC0C5010E94BF09EC0197FD11C0B9
:1012D0000E94AC09892B29F0CE01B5010E94010AB8
:1012E00008C0E114F10419F0F701C1937F019A9449
:1012F00049F7E114F104A9F0F701108212C000626D
:1013000003C0006101C00064C501692DA701202F41
:101310000E946A07882329F4F5018381807379F498
:1013200013C000FF8394F501F380F601F3FC1591DF
:10133000F3FE11916F01112309F00BCF05C0882036
:1013400019F42FEF3FEF02C0282D30E0C901CDB7CF
:10135000DEB7EEE00C94290591116DC0803219F0D2
:1013600089508550D0F70895FC010590061621F0AC
:101370000020D9F7C00108953197CF010895CF9388
:10138000DF93EC014B8140FF1AC046FF0AC04F7B40
:101390004B838E819F8101969F838E838A81282F24
:1013A0002BC042FF13C0E881F9818081282F3327A9
:1013B00027FD30952115310529F440624B832FEF2D
:1013C0003FEF1BC03196F983E88311C0EA85FB85A6
:1013D000CE0109959C0197FF0AC09B812F5F3F4F6B
:1013E00011F080E201C080E1892B8B83E8CF8E81F0
:1013F0009F8101969F838E8330E0C901DF91CF9159
:1014000008959C01FB01838180FF11C086FD0FC000
:101410009FEF2F3F390759F0228380648F7D8383AC
:101420008681978101979783868330E002C02FEFF2
:101430003FEFC9010895992788270895F894FFCFB1
:101440000D0A496C4D6174746F20436F6D732052A7
:1014500045414459210D0025732025750025303460
:10146000643A20434D44207761733A202225732249
:10147000207769746820256420282564290D0A00D6
:1014800000000001000000000000F8000000000063
:0C149000000200000000E400000000006A
:00000001FF
