:100000000C94BF000C94DC000C94DC000C94DC001D
:100010000C94DC000C94DC000C94DC000C94DC00F0
:100020000C94DC000C94DC000C94DC000C94DC00E0
:100030000C94DC000C94DC000C94DC000C94DC00D0
:100040000C94DC000C94DC000C94DC000C94DC00C0
:100050000C94DC000C94DC000C94DC000C94DC00B0
:100060000C94DC000C94DC000C94DC000C94DC00A0
:100070000C94DC000C94DC000C94DC006E616E00CF
:10008000696E660000407A10F35A00A0724E18099B
:100090000010A5D4E80000E87648170000E40B54EF
:1000A000020000CA9A3B000000E1F50500008096BE
:1000B0009800000040420F000000A08601000000F0
:1000C000102700000000E8030000000064000000AA
:1000D00000000A00000000000100000000002C7673
:1000E000D888DC674F0823DFC1DFAE59E1B1B7968E
:1000F000E5E3E453C63AE651997696E8E6C28426EB
:10010000EB898C9B62ED407C6FFCEFBC9C9F40F2C6
:10011000BAA56FA5F490055A2AF75C936B6CF96742
:100120006DC11BFCE0E40D47FEF520E6B500D0ED07
:10013000902E0300943577050080841E080000206F
:100140004E0A000000C80C333333330F986E12830D
:100150001141EF8D2114893BE65516CFFEE6DB18E1
:10016000D1844B381BF77C1D901DA4BBE4242032A6
:1001700084725E228100C9F124ECA1E53D2711249F
:100180001FBECFEFD0E1DEBFCDBF12E0A0E0B1E0F7
:10019000ECE4FFE102C005900D92AE35B107D9F74E
:1001A00012E0AEE5B2E001C01D92A836B107E1F75A
:1001B0000E94D0010C94A40F0C9400001F93182FE0
:1001C0008A3019F48DE00E94DE008091C00085FF26
:1001D000FCCF1093C600212F332727FD3095C9018E
:1001E0001F9108958091C00087FFFCCF8091C600C9
:1001F00090E008951092C5008DE48093C40088E1DA
:100200008093C10086E08093C20082E491E09093E5
:10021000650280936402909367028093660284E390
:1002200091E0909363028093620208958F929F926F
:10023000AF92BF92CF92DF92EF92FF920F931F93F4
:100240008C01FC0160857185828593852DEC3CECE9
:100250004CEC5DE30E9427044B015C01F8016483D0
:10026000758386839783648575858685978520E069
:1002700030E040E050E00E942704F80120893189F5
:10028000428953890E9427046B017C01F801608335
:1002900071838283938364857585868597852085A0
:1002A0003185428553850E94FA03F801648775877A
:1002B00086879787C501B401A70196010E94FA03BA
:1002C0001F910F91FF90EF90DF90CF90BF90AF9074
:1002D0009F908F90089510927C0086E880937A001A
:1002E0000895569A579A83E88093B00081E08093EE
:1002F000B10008951F93182F8B3F08F01AEF00D01C
:1003000000D0EDB7FEB7319680E091E0ADB7BEB753
:1003100012969C938E931197128313820E94FC0E67
:100320001093B3000F900F900F900F901F910895AE
:10033000EF92FF920F931F9380917A0080648093D5
:100340007A0080917A0086FDFCCFE0907800F090F2
:10035000790000D000D08FE091E0EDB7FEB7928336
:100360008183F482E3820E94FC0E00E010E0C80169
:10037000B7010E94B10623E333E343E550E40E9452
:10038000270420E030EC4FE754E40E9421050F9051
:100390000F900F900F901F910F91FF90EF90089585
:1003A0008F929F92AF92BF92CF92DF92EF92FF9285
:1003B0000F931F93CF93DF930E94FA000E94710165
:1003C00010927C0086E880937A0082E090E00E94A0
:1003D000DD0CEC018BE097EDA3E2BCE3888B998BFD
:1003E000AA8BBB8B87E191E00E94110F0F2EF0E0EA
:1003F000AF2EF0E0BF2EF8E4CF2EFEE3DF2EF02D7F
:1004000080E3882E85E7982E0E94980128E539E33D
:1004100044E35EE30E94210520E030E040EA50E43E
:100420000E94C903688779878A879B87CE010E94CB
:1004300016019B01AC01C601B5010E94C9035B0115
:100440006C0120E030E040E853E40E9427047B0187
:100450008C0120E030E040E050E00E942D0688232F
:100460002CF460E070E080E090E011C0C801B701BA
:1004700020E030E04AE753E40E94CD0518161CF056
:10048000C801B70104C060E070E08AE793E40E940D
:100490005102DC01CB010E947A01C4010197F1F7FE
:1004A000B3CFEF92FF920F931F937B018C0120E05B
:1004B00030E040E05FE40E94FD0588238CF0C80135
:1004C000B70120E030E040E05FE40E94C9030E94F1
:1004D0005D069B01AC01205030404040504806C0B2
:1004E000C801B7010E945D069B01AC01B901CA01B8
:1004F0001F910F91FF90EF900895A0E0B0E0E3E826
:10050000F2E00C94A60CDC012B01FA019C919230D4
:1005100008F439C1EB018881823008F433C194308A
:1005200069F4843009F02FC111969C91119789814B
:10053000981709F428C1A0E5B1E025C1843009F479
:1005400021C18230A9F4923009F01DC19A01AD0198
:1005500088E0EA010990AE01E90109929E0181500B
:10056000C1F7E201898111969C918923818308C199
:10057000923009F407C112962D903C901397EB012D
:100580008A819B811496AD90BD90CD90DC90179799
:10059000EC80FD800E811F819101281B390BB90170
:1005A00037FF04C066277727621B730B6032710523
:1005B0000CF061C0121613066CF537014801062EC7
:1005C00004C096948794779467940A94D2F721E0B4
:1005D00030E040E050E004C0220F331F441F551F9D
:1005E0006A95D2F721503040404050402E213F21A3
:1005F00040235123211531054105510521F021E00A
:1006000030E040E050E079018A01E628F728082927
:1006100019293CC0232BD1F1260E371E3501460186
:10062000062E04C096948794779467940A94D2F720
:1006300021E030E040E050E004C0220F331F441FAF
:10064000551F6A95D2F721503040404050402A2132
:100650003B214C215D21211531054105510521F03A
:1006600021E030E040E050E059016A01A628B728B7
:10067000C828D9280BC0821593052CF01C01AA2488
:10068000BB24650103C0EE24FF24870111969C91D1
:10069000D20111968C91981709F445C0992339F02D
:1006A000A80197012A193B094C095D0906C0A6015A
:1006B00095012E193F09400B510B57FD08C01182BF
:1006C0003382228224833583468357831DC081E091
:1006D00081833382228288279927DC01821B930B36
:1006E000A40BB50B84839583A683B7830DC0220F1B
:1006F000331F441F551F24833583468357838281CC
:100700009381019793838283248135814681578128
:10071000DA01C9010197A109B1098F5F9F4FAF4F5E
:10072000BF4328F30BC0918333822282EA0CFB1C67
:100730000C1D1D1DE482F5820683178383E08083F0
:10074000248135814681578157FF1AC0C901AA27E4
:1007500097FDA095BA2F81709070A070B0705695DB
:10076000479537952795822B932BA42BB52B848304
:100770009583A683B7838281938101969383828335
:10078000DF0101C0D201CD01CDB7DEB7E2E10C94AB
:10079000C20CA0E2B0E0EFECF3E00C94B20C698381
:1007A0007A838B839C832D833E834F835887E9E034
:1007B000EE2EF12CEC0EFD1ECE010196B7010E942B
:1007C0004E088E010F5E1F4FCE010596B8010E94A4
:1007D0004E088A8991E089278A8BC701B801AE014A
:1007E000475E5F4F0E947D020E947907A096E6E077
:1007F0000C94CE0CA0E2B0E0E0E0F4E00C94B20C7B
:1008000069837A838B839C832D833E834F835887B0
:10081000F9E0EF2EF12CEC0EFD1ECE010196B70192
:100820000E944E088E010F5E1F4FCE010596B80143
:100830000E944E08C701B801AE01475E5F4F0E949B
:100840007D020E947907A096E6E00C94CE0CA0E20F
:10085000B0E0EDE2F4E00C94A60C69837A838B831C
:100860009C832D833E834F835887CE010196BE0122
:10087000675F7F4F0E944E08CE010596BE016F5EF6
:100880007F4F0E944E089985923088F08989823086
:10089000C8F0943019F4823051F404C0843029F443
:1008A000923081F480E591E0C6C0923049F420E0B6
:1008B0009A858A89981321E02A87CE010996BBC0C0
:1008C000823049F420E09A858A89981321E02A8BA6
:1008D000CE014196B0C02D843E844F8458886D88E7
:1008E0007E888F88988CEE24FF248701AA24BB245D
:1008F000650140E050E060E070E0E0E0F0E0C10160
:1009000081709070892BE9F0E60CF71C081D191D09
:100910009A01AB012A0D3B1D4C1D5D1D80E090E04E
:10092000A0E0B0E0E614F7040805190520F481E022
:1009300090E0A0E0B0E0BA01A901480F591F6A1F7A
:100940007B1FAA0CBB1CCC1CDD1C97FE08C081E0E1
:1009500090E0A0E0B0E0A82AB92ACA2ADB2A3196A2
:10096000E032F10549F0660C771C881C991C5694FE
:10097000479437942794C3CFFA85EA892B893C8919
:100980008B859C85280F391F2E5F3F4F17C0CA01EA
:1009900081709070892B61F016950795F794E79414
:1009A00080E090E0A0E0B0E8E82AF92A0A2B1B2BAF
:1009B00076956795579547952F5F3F4F77FDE7CF22
:1009C0000CC0440F551F661F771F17FD4160EE0CCA
:1009D000FF1C001F111F21503040403090E059078C
:1009E00090E0690790E4790760F32B8F3C8FDB017F
:1009F000CA018F779070A070B07080349105A10506
:100A0000B10561F447FD0AC0E114F10401051105C7
:100A100029F0405C5F4F6F4F7F4F40781A8EFE1772
:100A200011F081E08A8F4D8F5E8F6F8F78A383E006
:100A3000898FCE0149960E947907A096E2E10C9435
:100A4000C20CA8E1B0E0E7E2F5E00C94AE0C6983DB
:100A50007A838B839C832D833E834F835887B9E0B1
:100A6000EB2EF12CEC0EFD1ECE010196B7010E947B
:100A70004E088E010F5E1F4FCE010596B8010E94F1
:100A80004E082985223008F47EC03989323010F4AE
:100A9000B8017CC08A859A8989278A87243011F019
:100AA000223031F4231709F06EC060E571E06EC0AA
:100AB000343039F41D861E861F86188A1C861B86D4
:100AC00004C0323021F484E08987B7015FC02B85F0
:100AD0003C858B899C89281B390B3C872B87ED84AF
:100AE000FE840F851889AD88BE88CF88D88CEA141B
:100AF000FB040C051D0540F4EE0CFF1C001F111F2C
:100B0000215030403C872B8720E030E040E050E02F
:100B100080E090E0A0E0B0E460E070E0EA14FB0464
:100B20000C051D0540F0282B392B4A2B5B2BEA18AE
:100B3000FB080C091D09B695A79597958795EE0CAE
:100B4000FF1C001F111F6F5F7F4F6F31710531F761
:100B5000DA01C9018F779070A070B0708034910570
:100B6000A105B10561F427FD0AC0E114F1040105F6
:100B7000110529F0205C3F4F4F4F5F4F20782D87A4
:100B80003E874F87588BBE01675F7F4FCB010E9426
:100B900079076896EAE00C94CA0CA8E1B0E0E3EDAE
:100BA000F5E00C94B20C69837A838B839C832D834C
:100BB0003E834F83588789E0E82EF12CEC0EFD1E12
:100BC000CE010196B7010E944E088E010F5E1F4FA5
:100BD000CE010596B8010E944E088985823040F00A
:100BE0008989823028F0C701B8010E94C60801C077
:100BF0008FEF6896E6E00C94CE0CA8E1B0E0E3E05D
:100C0000F6E00C94B20C69837A838B839C832D83EA
:100C10003E834F83588789E0E82EF12CEC0EFD1EB1
:100C2000CE010196B7010E944E088E010F5E1F4F44
:100C3000CE010596B8010E944E088985823040F0A9
:100C40008989823028F0C701B8010E94C60801C016
:100C50008FEF6896E6E00C94CE0CA8E1B0E0E3E3F9
:100C6000F6E00C94B20C69837A838B839C832D838A
:100C70003E834F83588789E0E82EF12CEC0EFD1E51
:100C8000CE010196B7010E944E088E010F5E1F4FE4
:100C9000CE010596B8010E944E088985823040F049
:100CA0008989823028F0C701B8010E94C60801C0B6
:100CB00081E06896E6E00C94CE0CACE0B0E0E3E6B0
:100CC000F6E00C94B60C69837A838B839C83CE0107
:100CD0000196BE016B5F7F4F0E944E088D8182306E
:100CE00061F1823050F1843021F48E81882351F1FA
:100CF0002EC02F81388537FD20C06E812F31310500
:100D00001CF06623F9F023C08EE190E0821B930B68
:100D100029853A854B855C8504C05695479537955E
:100D200027958A95D2F76623B1F050954095309576
:100D300021953F4F4F4F5F4F0EC020E030E040E025
:100D400050E009C02FEF3FEF4FEF5FE704C020E016
:100D500030E040E050E8B901CA012C96E2E00C9482
:100D6000D20CA8E0B0E0E7EBF6E00C94AE0C7B010F
:100D70008C01611571058105910519F482E0898363
:100D800060C083E089838EE1C82ED12CDC82CB82C7
:100D9000ED82FE820F831887C801B7010E942A07DF
:100DA000FC013197F7FF3BC0222733272E1B3F0B57
:100DB00057016801022E04C0D694C794B794A79433
:100DC0000A94D2F740E050E060E070E081E090E00B
:100DD000A0E0B0E004C0880F991FAA1FBB1F2A958E
:100DE000D2F70197A109B1098E219F21A023B12338
:100DF0000097A105B10521F041E050E060E070E00E
:100E00004A295B296C297D294D835E836F8378870E
:100E10008EE190E08E1B9F0B9C838B8312C03097DA
:100E200081F00E2E04C0EE0CFF1C001F111F0A944F
:100E3000D2F7ED82FE820F831887CE1ADF0ADC829A
:100E4000CB821A82CE0101960E9479072896EAE0A9
:100E50000C94CA0CEF92FF920F931F937B018C01AD
:100E600080E0E81680E0F80681E0080780E01807D7
:100E700088F48FEFE816F1040105110531F028F030
:100E800088E090E0A0E0B0E017C080E090E0A0E053
:100E9000B0E012C080E0E81680E0F80680E00807C5
:100EA00081E0180728F088E190E0A0E0B0E004C0FD
:100EB00080E190E0A0E0B0E020E230E040E050E0EF
:100EC000281B390B4A0B5B0B04C016950795F7944A
:100ED000E7948A95D2F7F701E85AFE4F8081281BE4
:100EE000310941095109C9011F910F91FF90EF90FC
:100EF0000895DF92EF92FF920F931F93FC01E4801D
:100F0000F58006811781D1808081823048F480E0AD
:100F100090E0A0E1B0E0E82AF92A0A2B1B2BA5C03B
:100F2000843009F49FC0823021F4EE24FF2487012D
:100F300005C0E114F1040105110519F4E0E0F0E049
:100F400096C0628173819FEF623879070CF05BC0B5
:100F500022E83FEF261B370B2A3131052CF020E029
:100F600030E040E050E02AC0B801A701022E04C0E2
:100F700076956795579547950A94D2F781E090E06A
:100F8000A0E0B0E004C0880F991FAA1FBB1F2A95DC
:100F9000D2F70197A109B1098E219F21A023B12386
:100FA0000097A105B10521F081E090E0A0E0B0E05C
:100FB0009A01AB01282B392B4A2B5B2BDA01C90193
:100FC0008F779070A070B07080349105A105B10545
:100FD00039F427FF09C0205C3F4F4F4F5F4F04C0DB
:100FE000215C3F4F4F4F5F4FE0E0F0E02030A0E04A
:100FF0003A07A0E04A07A0E45A0710F0E1E0F0E069
:1010000079018A0127C06038710564F5FB01E15858
:10101000FF4FD801C7018F779070A070B0708034F7
:101020009105A105B10539F4E7FE0DC080E490E01B
:10103000A0E0B0E004C08FE390E0A0E0B0E0E80EF4
:10104000F91E0A1F1B1F17FF05C016950795F79479
:10105000E794319687E016950795F794E7948A957B
:10106000D1F705C0EE24FF248701EFEFF0E06E2FEB
:10107000679566276795902F9F77D794DD24D7943F
:101080008E2F8695492F462B582F5D29B701CA010F
:101090001F910F91FF90EF90DF900895FC01DB010D
:1010A000408151812281622F6F7770E0221F2227B9
:1010B000221F9381892F880F822B282F30E0991FC0
:1010C0009927991F11969C93119721153105A9F520
:1010D000411551056105710511F482E037C082E8C0
:1010E0009FEF13969C938E9312979A01AB0167E042
:1010F000220F331F441F551F6A95D1F783E08C934D
:101100000DC0220F331F441F551F12968D919C91C5
:101110001397019713969C938E931297203080E03B
:10112000380780E0480780E4580758F314962D9359
:101130003D934D935C93179708952F3F310579F4B4
:10114000411551056105710519F484E08C930895EA
:1011500064FF03C081E08C9312C01C9210C02F5713
:10116000304013963C932E93129783E08C9387E044
:10117000440F551F661F771F8A95D1F77064149628
:101180004D935D936D937C93179708951F93DC01A6
:10119000FB019C91923008F447C08081823008F4B2
:1011A00043C0943051F411961C91843099F581819B
:1011B000682F70E0611B71093FC0843021F09230CC
:1011C00031F48230B9F18181882389F12DC01196E3
:1011D0001C9111978230F1F081811817D9F4129681
:1011E0002D913C911397828193818217930794F0FC
:1011F00028173907BCF014968D919D910D90BC91E4
:10120000A02D2481358146815781281739074A0747
:101210005B0718F4112341F00AC082179307A40753
:10122000B50740F4112319F061E070E005C06FEFDD
:101230007FEF02C060E070E0CB011F910895A1E153
:10124000B0E0E5E2F9E00C94A60C3C017F876E87E4
:101250006A01FC0117821682838181FD03C06FEF52
:101260007FEF6FC39E012F5F3F4F398B288BF301B8
:101270002381EE85FF8523FD859123FF8191FF87E3
:10128000EE87882309F45AC3853251F4EE85FF8531
:1012900023FD859123FF8191FF87EE87853229F415
:1012A00090E0B3010E94D00EE2CF982F10E0882486
:1012B00099241032B0F49B3269F09C3228F49032B9
:1012C00051F0933271F40BC09D3239F0903349F4F0
:1012D000116028C01260146025C0186023C010611E
:1012E00021C017FD2AC0892F80538A3078F416FF59
:1012F00006C0FAE09F9E902C1124980E13C03AE08D
:10130000839E802C1124880E10620CC09E3221F422
:1013100016FD14C3106406C09C3611F4106802C098
:10132000983659F4EE85FF8523FD959123FF919121
:10133000FF87EE87992309F0BCCF892F855483302E
:1013400020F4812F8061905E07C0892F85568330FD
:1013500008F09FC1812F8F7E86FD02C076E0972E18
:101360006FE3F62EF822953619F4F0E4FF2A07C051
:10137000963619F420E8F22A02C091109A94F7FEEA
:101380000AC03BE3391518F45CE3B52E02C0B92C52
:10139000B39427E009C047E0491520F4BB2447E097
:1013A000942EF7CF292DBB24C60104969D878C87E8
:1013B000F6016081718182819381AE014F5F5F4F41
:1013C0000B2D0E94E20D6C010981202E332400FFB9
:1013D00004C003FD02C01DE209C0F1FE02C01BE211
:1013E00005C0F2FC02C010E001C010E2C1018C7027
:1013F0009070892BB9F1112311F483E001C084E0CE
:10140000881510F088240AC0881AF3FC07C080E20F
:1014100090E0B3010E94D00E8A94C9F7112329F0FD
:10142000812F90E0B3010E94D00E23FE03C00CE791
:1014300010E00EC000E810E00BC0E114F10409F068
:10144000805290E0B3010E94D00E0F5F1F4F05C085
:10145000EF2CFF24F0E1EF22FF24F8018491882390
:1014600061F714C1F7FE12C0BC0C24FE04C08A81CF
:10147000813309F4BA941B141CF0BB24B3942DC01F
:10148000F8E0FB1550F538E0B32E27C0F6FC25C078
:10149000892D90E08C159D054CF02CEFC2162FEF96
:1014A000D20624F030E8F32A01C09A94992049F03A
:1014B000E2E0F0E0EC0FFD1FE90DF11D80818033CB
:1014C000A1F3F7FE0AC0B92CB394892D90E0C81699
:1014D000D90614F0992401C09C18F7FC03C025E03C
:1014E00030E009C01C141D041CF021E030E003C0F2
:1014F00096012F5F3F4F112311F02F5F3F4F99202F
:1015000029F0892D90E00196280F391F882D90E051
:101510002817390714F0882401C0821A4F2C55244B
:10152000C20189709070892B39F008C080E290E088
:10153000B3010E94D00E8A948820C1F7112329F0AC
:10154000812F90E0B3010E94D00E43FE07C008C077
:1015500080E390E0B3010E94D00E8A948820C1F706
:10156000F7FE46C08601D7FE02C000E010E076011B
:101570000894E11CF11CE01AF10A41E050E04C0F24
:101580005D1FE40EF51E26014B185108892D90E0D1
:10159000AA24BB24A81AB90A5FEF0F3F150729F444
:1015A0008EE290E0B3010E94D00EC016D10634F056
:1015B000401651061CF4F701808101C080E3015000
:1015C00010400894E11CF11C0A151B052CF090E05A
:1015D000B3010E94D00EE0CF0C151D0539F49A819D
:1015E000963318F4953311F424FE81E390E04BC058
:1015F0008A81813309F00F7E90E0B3010E94D00E02
:101600009920A1F08EE290E0B3010E94D00E12E08A
:10161000E1E0F0E0EC0FFD1FE10FF11D1F5F8081A5
:1016200090E0B3010E94D00E9A9491F744FC03C05D
:1016300085E690E002C085E490E0B3010E94D00E00
:10164000D7FC05C0C114D10441F404FF06C0D094F6
:10165000C194D108D3948DE201C08BE290E0B30134
:101660000E94D00E80E305C08F5F26EF3FEFC20ED1
:10167000D31E3AE0C316D104BCF790E0B3010E9438
:10168000D00EC601C096B3010E94D00ECC84DD847A
:1016900052C1933631F0933799F0933509F059C020
:1016A00023C0F601808189835E010894A11CB11CCE
:1016B00022E030E0C20ED31E21E0E22EF12C12C057
:1016C000F601A080B18016FD03C06FEF7FEF02C06E
:1016D000692D70E022E030E0C20ED31EC5010E94E9
:1016E000C50E7C011F7713C0F601A080B18016FDE6
:1016F00003C06FEF7FEF02C0692D70E022E030E0A1
:10170000C20ED31EC5010E94BA0E7C01106813FFE1
:1017100007C01BC080E290E0B3010E94D00E8A9403
:10172000882D90E0E816F906A8F30FC0F50117FD23
:10173000859117FF81915F0190E0B3010E94D00E67
:1017400081108A940894E108F108E114F10471F71A
:10175000F2C0943611F0993689F517FF08C0F601EA
:10176000208131814281538184E090E00AC0F601FA
:10177000808191819C01442737FD4095542F82E060
:1017800090E0C80ED91E9FE6F92EF12257FF09C03E
:1017900050954095309521953F4F4F4F5F4F90E8C2
:1017A000F92ACA01B901AE014F5F5F4F2AE030E06C
:1017B0000E94460FE82EE889EE1A41C0953721F4C1
:1017C0001F7E2AE030E01CC0197F9F3661F0903701
:1017D00020F4983509F0B2C00FC0903739F098372F
:1017E00009F0ACC004C028E030E00AC0106114FD6C
:1017F000146020E130E004C014FD166020E132E006
:1018000017FF08C0F601608171818281938144E0F5
:1018100050E008C0F60180819181BC0180E090E039
:1018200042E050E0C40ED51EAE014F5F5F4F0E94F4
:10183000460FE82E5889E51A8FE7F82EF122F6FEBA
:101840000BC08EEFF822E91438F4F4FE07C0F2FC66
:1018500005C09FEEF92202C01E2D01C0192DF4FE15
:101860000DC0FE01EE0DF11D8081803319F4E9EE0B
:10187000FE2208C01F5FF2FE05C003C08F2D8678D0
:1018800009F01F5F0F2DF3FC14C0F0FE0FC01815F8
:1018900010F09E2C0BC09E2C980C911A182D06C08F
:1018A00080E290E0B3010E94D00E1F5F1815C0F3D4
:1018B00004C0181510F4811A01C0882404FF0FC059
:1018C00080E390E0B3010E94D00E02FF1DC001FD35
:1018D00003C088E790E00EC088E590E00BC0802F41
:1018E000867891F001FF02C08BE201C080E2F7FC34
:1018F0008DE290E0B3010E94D00E06C080E390E03C
:10190000B3010E94D00E9A94E914C0F3EA94E1E086
:10191000F0E0EC0FFD1FEE0DF11D808190E0B301B2
:101920000E94D00EEE2091F706C080E290E0B30155
:101930000E94D00E8A948820C1F799CCF301668169
:101940007781CB016196E2E10C94C20C2F923F9219
:101950004F925F926F927F928F929F92AF92BF92BF
:10196000CF92DF92EF92FF920F931F93CF93DF936B
:10197000CDB7DEB7CA1BDB0B0FB6F894DEBF0FBEC8
:10198000CDBF09942A88398848885F846E847D8415
:101990008C849B84AA84B984C884DF80EE80FD8017
:1019A0000C811B81AA81B981CE0FD11D0FB6F8948D
:1019B000DEBF0FBECDBFED010895CF93DF93BC0115
:1019C0008230910510F462E070E0A0916002B09165
:1019D0006102ED01E0E0F0E040E050E021C08881EC
:1019E00099818617970769F48A819B81309719F04E
:1019F0009383828304C09093610280936002FE010E
:101A000034C06817790738F44115510519F0841767
:101A1000950708F4AC01FE018A819B819C01E901D4
:101A20002097E9F641155105A9F1CA01861B970BCC
:101A3000049708F4BA01E0E0F0E02AC08D919C918F
:101A4000119784179507F9F46417750781F41296B6
:101A50008D919C911397309719F09383828304C0E2
:101A60009093610280936002FD0132964FC0CA01DB
:101A7000861B970BFD01E80FF91F61937193029785
:101A80008D939C9343C0FD01828193819C01D90178
:101A90001097A1F680915E0290915F02892B41F42C
:101AA00080915A0290915B0290935F0280935E0254
:101AB00040915C0250915D024115510541F44DB7D2
:101AC0005EB78091580290915902481B590B2091A2
:101AD0005E0230915F0224173507B0F4CA01821B01
:101AE000930B8617970780F0AB014E5F5F4F84170B
:101AF000950750F0420F531F50935F0240935E02D0
:101B0000F9016193719302C0E0E0F0E0CF01DF9151
:101B1000CF910895CF93DF93009709F450C0EC0163
:101B200022971B821A82A0916002B09161021097E5
:101B300009F140E050E0AC17BD0708F1BB83AA8370
:101B4000FE0121913191E20FF31FAE17BF0779F427
:101B50008D919C911197280F391F2E5F3F4F39832C
:101B6000288312968D919C9113979B838A834115AC
:101B7000510571F4D0936102C093600220C01296A7
:101B80008D919C911397AD01009711F0DC01D3CF9B
:101B9000FA01D383C28321913191E20FF31FCE1753
:101BA000DF0769F488819981280F391F2E5F3F4F25
:101BB000FA01318320838A819B8193838283DF9121
:101BC000CF910895283008F027E03327DA01990FE4
:101BD000311D87FD916000966105710539F4326011
:101BE0002E5F3D9330E32A95E1F708959F3F30F053
:101BF00080387105610509F03C5F3C5F3D93913091
:101C000008F08068911DDF93CF931F930F93FF928D
:101C1000EF92192F987F9695E92F96959695E90F53
:101C2000FF27E252FF4F99273327EE24FF24A70115
:101C3000E70105900894079428F4360FE71EF81E74
:101C4000491F511D660F771F881F991F0694A1F722
:101C50000590079428F4E70EF81E491F561FC11D72
:101C6000770F881F991F661F0694A1F705900794A8
:101C700028F4F80E491F561FC71FD11D880F991F42
:101C8000661F771F0694A1F70590079420F4490F6B
:101C9000561FC71FD81F990F661F771F881F0694EE
:101CA000A9F784911095177041F0D695C79557956F
:101CB0004795F794E7941A95C1F7E4E8F0E0689443
:101CC0001590159135916591959105907FE27395E9
:101CD000E118F10A430B560BC90BD009C0F7E10C10
:101CE000F11E431F561FC91FD01D7EF4703311F41F
:101CF0008A95E6CFE894015030F0080F0AF40027E7
:101D0000021708F4202F2395022F7A3328F079E365
:101D10007D932A95E9F710C07D932A9589F606945C
:101D200097956795379517951794E118F10A430B26
:101D3000560BC90BD00998F023957E9173957A3391
:101D400008F070E37C932013B8F77E9170617D9367
:101D500030F0839571E37D9370E32A95E1F71124C8
:101D6000EF90FF900F911F91CF91DF91992787FD01
:101D700090950895FC010590615070400110D8F7CE
:101D8000809590958E0F9F1F0895FC0161507040C3
:101D900001900110D8F7809590958E0F9F1F0895A0
:101DA0000F931F93CF93DF938C01EB018B8181FF06
:101DB0001BC082FF0DC02E813F818C819D81281721
:101DC000390764F4E881F9810193F983E88306C057
:101DD000E885F985802F0995892B31F48E819F81C3
:101DE00001969F838E8302C00FEF1FEFC801DF9122
:101DF000CF911F910F910895A0E0B0E0E2E0FFE0E5
:101E00000C94B60CFE01359661917191809164023B
:101E100090916502AF010E941F092096E2E00C94A8
:101E2000D20C0F931F93CF93DF938C01E091640248
:101E3000F0916502838181FF21C0C0E0D0E00DC038
:101E4000E0916402F091650220853185BF01F901BE
:101E50000995892B11F0CFEFDFEFF80181918F0108
:101E6000882371F7E0916402F09165022085318545
:101E70008AE0BF01F9010995892B11F0CFEFDFEF5F
:101E8000CE01DF91CF911F910F910895FA01AA27FA
:101E9000283051F1203181F1E8946F936E7F6E5FAD
:101EA0007F4F8F4F9F4FAF4FB1E03ED0B4E03CD05B
:101EB000670F781F891F9A1FA11D680F791F8A1F3E
:101EC000911DA11D6A0F711D811D911DA11D20D0A5
:101ED00009F468943F912AE0269F11243019305D5F
:101EE0003193DEF6CF010895462F4770405D419350
:101EF000B3E00FD0C9F7F6CF462F4F70405D4A339D
:101F000018F0495D31FD4052419302D0A9F7EACF64
:101F1000B4E0A6959795879577956795BA95C9F793
:101F200000976105710508959B01AC010A2E069486
:101F30005795479537952795BA95C9F7620F731F3F
:0C1F4000841F951FA01D0895F894FFCF8A
:101F4C0050574D3D25337520203D3D3E202000410E
:101F5C0044433D253464000D0A496C4D6174746F23
:101F6C0020436F6D7320426F6F7374205245414450
:101F7C0059210D0000000001000000000000F200DB
:101F8C0000000000000200000000DE000000000065
:101F9C000000000000000000000102020303030324
:101FAC0004040404040404040505050505050505DD
:101FBC0005050505050505050606060606060606BD
:101FCC0006060606060606060606060606060606A5
:101FDC00060606060606060607070707070707078D
:101FEC000707070707070707070707070707070775
:101FFC000707070707070707070707070707070765
:10200C000707070707070707070707070707070754
:10201C00070707070707070708080808080808083C
:10202C000808080808080808080808080808080824
:10203C000808080808080808080808080808080814
:10204C000808080808080808080808080808080804
:10205C0008080808080808080808080808080808F4
:10206C0008080808080808080808080808080808E4
:10207C0008080808080808080808080808080808D4
:10208C0008080808080808080808080808080808C4
:0E209C0008080808080808082000680200006C
:00000001FF
